:10000000C05B0020E9460000B1460100194700002E
:1000100019470000194700001947000000000000C0
:10002000000000000000000000000000B1440000DB
:1000300019470000000000005D4400008B460100ED
:10004000A9460000E9EA0000A9460000A946000010
:10005000A9460000A9460000A9460000A9460000E4
:10006000A9460000A9460000A9460000A9460000D4
:10007000A9460000A9460000A9460000A9460000C4
:10008000A9460000A9460000A9460000A9460000B4
:10009000A9460000A9460000A9460000A9460000A4
:1000A000A9460000A9460000A9460000A946000094
:1000B000A9460000A9460000A9460000A946000084
:1000C000A9460000A9460000A9460000A946000074
:0C00D000A9460000A9460000A946000057
:0400DC00FFFFFFFF24
:1000E00053B94AB9002908BF00281CBF4FF0FF319F
:1000F0004FF0FF3000F06EB9ADF1080C6DE904CEA1
:1001000000F006F8DDF804E0DDE9022304B07047F2
:100110002DE9F047089D0E4604468C46002B40F022
:1001200081808A42174645D9B2FA82F24AB1C2F1B9
:10013000200106FA02F320FA01F1974041EA030C8C
:1001400094404FEA174E230CBCFBFEF6B9B20EFBEF
:1001500016CC43EA0C4306FB01F0984209D9FB1880
:1001600006F1FF3C80F01581984240F21281023E78
:100170003B441B1AA4B2B3FBFEF00EFB103344EA5F
:10018000034400FB01F1A14209D93C1900F1FF33FE
:1001900080F00181A14240F2FE8002383C44641AA2
:1001A00040EA064000211DB1D4400023C5E90043C8
:1001B000BDE8F08702B9FFDEB2FA82F2002A4FD121
:1001C000CB1B4FEA174E1FFA87F80121B3FBFEFC49
:1001D000260C0EFB1C3346EA034608FB0CF3B34225
:1001E00007D9BE190CF1FF3002D2B34200F2EB8006
:1001F0008446F61AA3B2B6FBFEF00EFB106643EA85
:10020000064408FB00F8A04507D93C1900F1FF336C
:1002100002D2A04500F2D2801846A4EB080440EABE
:100220000C40C0E78B4208D9002D00F0AF800021C0
:10023000C5E900060846BDE8F087B3FA83F1002956
:1002400049D1B34202D3824200F2BB80841A66EBEA
:10025000030301209C46002DAAD0C5E9004CA7E766
:10026000C2F120039740D8409140DE404FEA174E3C
:1002700008434FEA104CB6FBFEF11FFA87F80EFB5D
:1002800011664CEA064601FB08F3B34204FA02F495
:1002900009D9BE1901F1FF3C80F08E80B34240F2D3
:1002A0008B8002393E44F31A86B2B3FBFEF00EFB9C
:1002B000103346EA034600FB08F3B34207D9BE19E0
:1002C00000F1FF3C74D2B34272D902383E44F31AB3
:1002D00040EA01417AE7C1F1200703FA01F422FA6A
:1002E00007F31C4320FA07F906FA01F34FEA144C0E
:1002F000FE4049EA03094FEA1943B6FBFCFE1FFA28
:1003000084F80CFB1E6643EA06460EFB08FAB2456B
:1003100002FA01F200FA01F308D9A6190EF1FF3032
:1003200048D2B24546D9AEF1020E2644A6EB0A06E3
:100330001FFA89F9B6FBFCF00CFB106649EA064689
:1003400000FB08F8B04507D9A61900F1FF3C2DD2F3
:10035000B0452BD90238264440EA0E40A6EB0806E9
:10036000A0FB02894E45C446CE4618D315D075B3BE
:10037000B3EB0C0266EB0E0606FA07F722FA01F35E
:10038000CE401F43C5E90076002111E729462846E3
:100390000EE76646EDE6184601E74345E7D2B8EBBF
:1003A000020C69EB04040138A646E0E76046D3E797
:1003B00060468CE78646B9E7614674E702383C44FC
:1003C0002BE7084647E7ACF1020C3E4411E729460B
:1003D000EEE600BF704700BF2DE9F041D0E90BC742
:1003E000D0F828800CEB07043034A0450E461546A3
:1003F00018D81B4F18A3D3E90023ACFB0701FFF764
:100400006FFEA4EB080420F07F40306012A3D3E914
:100410000023A4FB0701FFF763FE20F07F40286064
:10042000BDE8F0810E4C0CA3D3E90023A8FB040126
:10043000FFF756FE20F07F4307F130003360A0FB4A
:10044000040105A3D3E90023FFF74AFE20F07F4013
:100450002860BDE8F08100BF8D49FD1A070000004B
:1004600000CA9A3B000000002DE9F04FB34C94F80D
:10047000D6608FB006F00106002800F0C981CEBB1F
:1004800094F87C7094F8290094F82C204FF02709F8
:100490002D2309FB074700F0030019FB0239FF2356
:1004A00084F82A300DF0E6FC94F8D600410707F1F5
:1004B0007D0704EB090800F12A8114F80900314690
:1004C000C0F3801006F0E0F806220146054608F168
:1004D000020014F01AF929460622B81C14F015F986
:1004E00014F809305A060AD413F00E0F40F0E780D2
:1004F000636A93B10C2630460FB0BDE8F08F062139
:1005000008F1020004F036FC002800F02B8214F8F9
:10051000093013F00E0FEBD0D1E008F0ADFE8246AB
:10052000002800F03E8208F0B3FE8346002800F069
:100530004A820AF0A1F80546002800F041824FF6F1
:10054000FF73806FAB8505F11C030B93002800F04F
:10055000248205F16C0205F1680104F017FCB5F87E
:100560006420774995F840C095F83DE095F8DC00A7
:10057000744B2B660A4042F4887242F0010295F8EF
:100580002611A5F86420002262F3000C20F003007D
:1005900021F0030185F840C00EF03F0E4FF01B1C08
:1005A0006EF07F0E85F8DC0085F826117F20664905
:1005B000C5F85CC04FF0060CC5E9132285F83F2052
:1005C0006A866A636A65A5F8C820A5F8CC20A5F8F4
:1005D000E82085F8EA20C5F80021A5F80421A5F84F
:1005E0001821C5F82021A5F8242185F82F2185F8A8
:1005F0003DE085F8C100A5F8C4C0C5F81C11C5F8D8
:1006000030A1AA6795F872E195F89AC195F87E0035
:1006100095F85211A5F87C2062F3C30C62F3041E16
:1006200021F0070120F01F00A5F85021A5F8702146
:10063000A5F89821A5F8A42185F89AC185F872E15A
:1006400085F8521185F87E000AF044FBA5F8D60023
:100650000AF046FBD5F8A8313C49A5F8D800194066
:10066000C5F8A8110AF042FB95F8AC1160F302013D
:1006700085F8AC110AF040FBC4E933AB0B9B636215
:1006800095F8AC1195F820C0ED610301002203F04C
:10069000700321F078010B4362F3000CC5E96E2270
:1006A000C5E96C22C5E90522C5F8C02185F8AC3141
:1006B00085F820C00EF090FD002840F05F8194F88E
:1006C00028300121C3F342030DA88DF8343004F023
:1006D000D5FC002800F0958014F8093003F00F03D2
:1006E000022B00F1FF3233D0012B00F04B817878E0
:1006F0001030C100002B00F03781062B00F068811C
:100700004FF4DA704FF41B7100FB02102BE0C0F3C2
:10071000C000324604F1D7010DF09AFDFF2884F89D
:100720002A0002D030460DF065FC414603480DF02A
:10073000E7FB024839460DF0E3FBD1E6D01A002072
:1007400080F8FFFF48014801FF4101000000FFF66B
:1007500098F801301033DB0000FB03F000F5AA70BD
:10076000642303FB020094F82070A74AE46100258B
:10077000312365F30007A0FB0201236084F8207099
:100780009FA3D3E90023C4E90555C4E90155FFF748
:10079000A7FCB4F8D480E06005F070FF0746B8F11C
:1007A000000F08D114F8095005F00F05A5F1010557
:1007B000B5FA85F56D0994F82820E36865F3000221
:1007C00012F0010584F8282076D0DFF848928F498E
:1007D0000493002002250DF1300801930591CDE925
:1007E00007980321CDE9020006942A4600903B4673
:1007F0000C9505F033FE414608F0C6FD002800F0D8
:100800009E80636A002B3FF475AE09F06FF871E6C5
:10081000002E3FF46FAE204608F0D2FD844204D093
:100820007B4840F2357103F08DF994F82830D807F1
:100830000DAD0ED502220D920321764B00950122BB
:10084000002005F077FE294608F09EFD002840F0C4
:10085000C980022203216F4B009500200D9205F004
:1008600069FE294608F090FD002840F09C806A4807
:1008700008F0E2FD002840F08A80684808F0ACFDEE
:10088000844204D0624840F2577103F05BF9636A16
:100890000BB109F02BF894F8D63000206FF3000369
:1008A00084F8D63009F086FB0646002844D000269E
:1008B00030460FB0BDE8F08F59485A4ADFF854E18E
:1008C000DFF848C10694A8FB00014FF0910909FB2D
:1008D000081103F24718C2F800804FF00209049390
:1008E00009920DF1300846A3D3E900234FF6FF7AB1
:1008F000CDE907E80295CDF83090CDF814C0CDF8D9
:100900000CA0FFF7EDFB4A46CDE900503B462846D8
:10091000032105F04DFD414608F036FD00287FF427
:1009200070AF94F8D63043F0010384F8D63009F064
:1009300041FB0028BBD101200DF07AFADBE53A49F2
:1009400005914AF2D8320092CDE90798CDE903002B
:10095000CDE9010006943B46012203210C9505F0E8
:100960007DFDD8E71226C6E598F801001030C000DA
:1009700000F54D73194400F59A70C5E608F0B6FF0E
:100980000326B8E54FF4F2704FF47F71BCE62048BF
:1009900040F2547103F0D6F86FE705F17000A867D4
:1009A000D7E50726A7E51D4808F016FD84423FF469
:1009B000A1AD174840F24E7103F0C4F80C269AE539
:1009C000584608F06BFC504608F05CFC072692E5A0
:1009D00098F801301033DB0003F54D70014403F546
:1009E0009A7091E60D4808F0F7FC84423FF482AD1E
:1009F00007484FF4E86103F0A5F80C267BE500BF3B
:100A00008D49FD1A0700000000CA9A3BFD970000BF
:100A1000285701007D930000EC1A0020D01A002016
:100A2000002AE784B01B00209D9700000000000012
:100A3000F8B5194E9DF8184096F8485015F0010782
:100A400021D196F832C0DFF854E0A6F84210E40055
:100A500004F018040CF0670C44EAC01463F3420578
:100A6000A2FB0E0144EA0C04912303FB021186F859
:100A7000485007A3D3E9002386F83240FFF730FB44
:100A800070643846F8BD0C273846F8BDAFF30080D7
:100A90008D49FD1A07000000D41B0020002AE784BE
:100AA000F8B59DF81840104E0546E400807DEA84B4
:100AB00004F01804A3FB066700F06700912244EAE3
:100AC000C111014302FB0377A97505A3D3E90023F4
:100AD00030463946FFF704FBA862F8BDAFF300804B
:100AE0008D49FD1A07000000002AE784000000007D
:100AF0002DE9F04F90F83230044600F1350190F8BE
:100B0000480003F0F903C0F3400060F386138DB092
:100B100084F8323005F0B8FDB4F8426094F8203023
:100B20004F48E4610025A6FB000165F30003912214
:100B300002FB0611C4E9055584F8203046A3D3E929
:100B40000023FFF7CDFA636C656006460933A6F112
:100B5000310293424FF03101A56028BF65642160E6
:100B600034BFE360E26005F089FD656A80460DF1FF
:100B70002C09002D4ED03B4DCDF82090B4F842A06A
:100B800039493748E268DFF8ECC00492651BAD08CC
:100B9000A1FB0535AAFB0001912303FB0A11334B8E
:100BA00005934FF0000A2CA3D3E900230227CDF8C8
:100BB0001CC006940B97CDF80CA0FFF791FA1046D5
:100BC00019464FF47A720023FFF78AFA6D0804354C
:100BD000EDB22A46029043460321CDF800A05046CC
:100BE000019605F03BFC494608F0CEFB054668B986
:100BF00094F8483043F0010384F8483008F0E6FFE9
:100C00000446F8B128460DB0BDE8F08F0C200DB0B9
:100C1000BDE8F08FE1680A954B460AAA03200B95C0
:100C200002F0DAF90B990029A5D011480AA3D3E9FB
:100C30000023A1FB0001FFF753FA0A9B20F07F4835
:100C4000984498E738460DF0F3F820460DB0BDE81B
:100C5000F08F00BFAFF300808D49FD1A0700000040
:100C6000002AE784D41B0020BD86F21AAD9D000047
:100C700000CA9A3B7D9300000F2800F28E802DE978
:100C8000F04D024604460E4655484FF4E47104F018
:100C900059F8838DA342054654D1524AD7785078EB
:100CA00091787B1CDBB2984208BF002399427DD02B
:100CB000104610F8041B11FB07F1471876D0445278
:100CC0007E60297CD37001F0FF00002968D0464F78
:100CD0003B68062B3AD8DFF82881444B00220121DB
:100CE00003209D6004F0D4F895F93D30002B61DBC2
:100CF00003F050FB3E493F4B0C68DFF808C10FF290
:100D0000D80BDBE900AB041BA4FB0345E20BEB0BA8
:100D100042EA45429B4508BF92453AD33C68DCF81D
:100D200000100134757934480D44A5FB00012944B5
:100D3000CCF80050FFF7D4F93C60C8F80000002060
:100D4000BDE8F08D6FF01500BDE8F08D95F86400FA
:100D500095F87EC0DFF8A880284A00F00303CCF3A2
:100D6000001C03F1090103EB8C03C0F34000C90030
:100D70002433C140DB00C34001F596700344D8F82A
:100D80000000B2FBF0F29A4219D800200FF002FDE9
:100D9000A3E7086001240021C4E76FF01500704745
:100DA0000FF0F8FC104FDFF858809DE76FF0360029
:100DB000BDE8F08D214628460CF0D2F998E75000A6
:100DC0009631013800EB4100C01A4900B0FBF1F048
:100DD000C0B2DBE7AFF3008000CA9A3B000000001E
:100DE000341C0020B80400201C440020FC04002017
:100DF000B838002000CA9A3B0050D6DC00E6DF0C71
:100E000024440020204400202DE9F04F044690F8AF
:100E1000E93090F8E80083428BB00D4616460ED0BC
:100E2000C01A00F0030002281BD094F82D2194F87A
:100E30002C319A4230D100200BB0BDE8F08F94F8ED
:100E4000522112F00108F0D194F8051194F80471C0
:100E50008F4200F03D83981E012284F8E90084F857
:100E6000EA2094F8983194F899219A4206D094F89F
:100E70009A2102F00601042900F06E8394F8EA70CA
:100E80007A1E052A00F21E83DFE812F05C00B5022C
:100E90005C021C03DF02A301294803F021FF58B3C1
:100EA00094F82C3184F82D310379022243F00303A6
:100EB00042710371C271D4F8B03194F82E210272DC
:100EC0002BB394F85221910721D494F8AB21D20787
:100ED0001DD4D4F8BC21934204BF1A68C4F8BC21C5
:100EE000D4F8B421B2B91A68026018600368C4E982
:100EF0006D000BB9C4F8C001B4F8CC0000289AD139
:100F0000B4F8C630012B0ED9A4F8CC3093E7D4F84E
:100F1000B42172B1D4F8B8311A680260186003685D
:100F2000C4F8B801E5E70133A4F8CC300BB0BDE854
:100F3000F08F0360C4E96C00C4F8B801D9E700BFC2
:100F4000CC390020DFF8F883D8F80030002B00F00F
:100F50007F84E78E628E94F806311744374413F08D
:100F60000303BFB240F0A283B4F8EC90A7EB0902F0
:100F70001FFA82FA12043FF558AF94F8701194F8F2
:100F8000712194F8040184F805018A4294F8E8007C
:100F900084F8E90009D094F8722102F00702052ACA
:100FA00004BF84F87111A4F8CC30D8F800309C420A
:100FB00004BF0023C8F80030D4F80081B8F1000F56
:100FC00000F05B85D8F80000002800F05685B4F8E2
:100FD0000831E18D4268C4F800218B42B4F80A213F
:100FE000B4F80CC100F04F86A18DA8F806104FF0A0
:100FF0000F0E0021A8F81E30A8F82020A8F822C063
:1010000088F804E088F81C10414608F04DF908F013
:1010100055F92368002B09DAD4E9011223F00043C3
:101020008A422CBFA91869182360CD1AE38DB4F841
:10103000088113FB0AF39BB2B3FBF8F118FB01F232
:1010400092B293421FFA81FB80F00585D31AB24811
:1010500040F2E24202FB03F3A3FB0001ACA3D3E99D
:101060000023FFF73DF820F07F400544628E94F99D
:101070003D30A9EB070732445F44174440F2E24990
:10108000002B678609FB08F6C0F29486D4F810019D
:10109000A1499FA3D3E90023A0FB0101FFF720F89A
:1010A00020F07F4909F101093746B4F80C21B4F862
:1010B0000A119A4BA4F82E8042F2107000FB0262D3
:1010C0009748218633443044B3FBF6F3013AB2FB30
:1010D000F6F2B0FBF6F6A4F8C62098B28A1D90424C
:1010E000A4F8D200A4F8CA6002DD401A063880B223
:1010F00094F80631A4F8CE005B0744BF0023A4F89F
:10110000C8300221012010F013FC00220221824687
:10111000012003F089FE83494FF4E472204603F076
:1011200015FE00F105085FFA88F87F4B00944246EF
:101130000121002005F0FEF930F0020304D07B48C5
:1011400040F6921102F0FEFC734EA7FB066770A3F7
:10115000D3E9002330463946FEF7C2FF744A20F037
:101160007F4BABFB02230721B01A01FB0B3367EB6C
:1011700003014FF47A720023FEF7B2FF6D4A6E4905
:10118000E6686E4F034694F93D00029311EA200190
:1011900038BF11460020CDE904612B46CDF804B0DC
:1011A00008940694CDF800904246079703900121D9
:1011B00005F054F930F0020304D05C4840F6AC115D
:1011C00002F0C0FCBAF1000F40F077856FF04700E5
:1011D00032E6618EE28E94F8EC300A44324496B2E4
:1011E000DA07194600F10082B4F8EE20B61A30048E
:1011F0003FF51BAE94F8642094F8658094F8E800FD
:10120000B4F8627084F8E90013F01C0F02F00709CB
:1012100008F0070840F05A85B4F8606013F0E00F5A
:1012200008D094F865205B0963F3020284F8652016
:101230004FF4A47794F8AC3194F86420D4F80051BA
:10124000C3F3C00363F3C30284F86420002D00F0ED
:1012500052852868002800F04E8594F8643094F890
:1012600065C04268C4F800218907C3F30202CCF3C9
:10127000020E03F007030CF0070C02D4994500F0AE
:101280003987A38DEB801321002329716A7785F8B4
:101290001EE02B77294608F007F8D4F80051002DFE
:1012A00000F037862868002800F03386B4F86030F4
:1012B0004268C4F80021B3420AD3B3F5A47F07D82B
:1012C000B4F86230BB4203D3B3F5A47F40F2268763
:1012D000A4F86060A4F862702B7FA28DEA8043F0CE
:1012E00003030221092229712B776A77B4F85E3053
:1012F000B4F85C202B841523AA84EB7729466F84ED
:10130000EE8407F0D1FF07F0D9FF8EE5AFF3008040
:101310008D49FD1A0700000000CA9A3B7FC3C9012E
:10132000FF596202341C002005A30000A8570100E9
:101330008D49FD1A69D20000ADD00000D5A2000091
:10134000B438002094F8EC3013F003057FF46DAD51
:10135000D44803F0C5FC064600283FF466AD94F976
:101360003D30002B80F2D18494F8ED50002D00F038
:101370001D83037994F8DC2043F003030371D00745
:1013800040F19886D4F81C31590740F19386112218
:1013900003237572F27133727771D4F8B031002281
:1013A00084F8ED20002B00F04B8394F85221920733
:1013B00000F1468394F8AB21D70700F14183D4F8BC
:1013C000BC21934204BF1A68C4F8BC21D4F8B421EC
:1013D000002A00F0F987D4F8B8311A6832601E602C
:1013E0003368C4F8B861002B00F0608694F8E830E8
:1013F00084F8E93019E5E28E618E94F8EC300A4405
:101400003244DF0796B200F1EF81B4F8F220B61A49
:1014100035043FF50AAD94F8E83084F8E93004F17A
:101420003805052204F1ED01284613F06EF928462F
:10143000052103F023FE94F83D30012260F30503FB
:1014400084F83D3084F8C421EFE4964803F048FC6A
:1014500000283FF4EAAC94F8E83084F8E93001233E
:1014600002794371D4F8B03142F0030212210271C3
:10147000C171002B00F0878294F85221950700F18A
:10148000828294F8AB21D10700F17D82D4F8BC218F
:10149000934204BF1A68C4F8BC21D4F8B421002ACE
:1014A00000F08087D4F8B8311A68026018600368C9
:1014B000C4F8B801002B00F03485B4F8CA30A4F8A1
:1014C000CC30B2E4784840F2BF3102F03BFBACE4F0
:1014D00094F8197194F818C1674553D194F825719F
:1014E00094F824C1674500F0D182A7EB0C07FF07F1
:1014F0007FF59BAC94F82631D80740F1BA869F0758
:1015000040F1AC8607F0FEFE014600B394F82431AA
:1015100084F82531037FA28DC28043F003030B774B
:10152000022006220C2308714A77CB7794F8270112
:10153000B4F82821B4F82A31A1F8233081F820002A
:10154000A1F82120086807F0AFFE07F0B7FE94F875
:10155000E80094F8E93063E402F00701062901F29B
:10156000848001A050F821F0DD1800007D0E0000FD
:101570007D0E00007D0E0000591800005918000073
:101580007D0E0000A7EB0C07F8077FF54EAC94F832
:10159000DC1011F0010700F0618407F0B3FE07468C
:1015A0000028D4D094F8183184F81931037FA28D23
:1015B000C28043F003030922022041463B77387181
:1015C0007A77FA7707F12000082213F0C9F8D4F8E7
:1015D000203187F82030C3F307221B0C87F8212025
:1015E00087F822303946ADE7022007F06DFE074646
:1015F00000283FF41AAC2B4803F072FB0546002884
:101600003FF413AC94F8EC306FF30003C3F38200A3
:10161000C3F3421250EA020884F8EC30DBB240F027
:10162000FF8594F8E820A4F8EE809B0784F8E92071
:1016300000F16D864346414605226A7185F80880AF
:101640002A796B72D4F8B031698142F00302182113
:101650002A71E971002B00F0F08094F8522197076D
:1016600000F1EB8094F8AB21D60700F1E680D4F8C6
:10167000BC21934204BF1A68C4F8BC21D4F8B42139
:10168000002A00F0A986D4F8B8311A682A601D60D3
:101690002B68C4F8B851002B7FF4C7ABC4F8C05115
:1016A000FFF7C3BBCC390020A8570100012007F089
:1016B0000BFE804600283FF4B8ABB84803F010FB9F
:1016C000064600283FF4B1AB07F01CFED8F8003006
:1016D000D4F800215A6094F80631C4F8008103F070
:1016E0000303012B00F04285022B00F0F48440F646
:1016F000BD01AB4802F026FA0021238E94F806C102
:1017000032793B44063398B26FF3010C0C23A4F8F2
:10171000EC0084F806C142F003027371D4F8103172
:10172000A04F32710022F271A7FB032394F81471C9
:1017300022683772B4F80871A6F80B70B4F80A7111
:10174000A6F80D70C3F38F23B4F80C71A6F80F70D0
:10175000002AA6F81100A6F80930C4F8F4500ADAF5
:10176000D4E9010322F0004283422CBFEB182B186E
:101770009A1AC4F8F4208C4B06F109000122C4F82F
:10178000F000D960104602219C6003F081FB002824
:1017900040F0EF84D4F8B031002B00F0A18294F82F
:1017A0005221900700F19C8294F8AB21D10700F1FF
:1017B0009782D4F8BC21934204BF1A68C4F8BC21B4
:1017C000D4F8B421002A00F00F86D4F8B8311A6892
:1017D00032601E603368C4F8B861002B7FF425AB1B
:1017E000C4F8C061FFF721BB6C4803F079FA0546E5
:1017F00000283FF41AAB238E027994F8EC1033449E
:101800000633A4F8F2306FF30001012342F0030223
:10181000082084F8EC102A716871EB71052204F13C
:10182000ED01281812F071FFD4F8B031B4F8F220AD
:10183000A5F80D20002B7FF410AFD4F8B421002AB6
:101840007FF421AF2B60C4E96C55C4F8B85122E78E
:10185000C8F80040FFF77DBB02F00702B4F89CC156
:10186000B4F8A011B4F89E91B4F8A281A4F85EC0B7
:10187000042AA4F8621000F0C88494F89A31062271
:1018800062F3020384F89A31D4F80071002F00F05B
:1018900061843868002800F05D843B7F4268B4F8BA
:1018A0002CE0C4F8002143F0030302223B774FF001
:1018B000090A1523A7F806E0A7F820C079843A7131
:1018C000FB773946A7F82490A7F8268087F81DA053
:1018D00007F0EAFC07F0F2FCFFF7D0BA2F4803F05C
:1018E000FFF900283FF4CAAA94F89A31B4F89E711F
:1018F000B4F8A221A4F8D6700121A4F8D82061F38D
:101900000203092284F89A3142710279D4F8B03185
:10191000878142F003024FF0140CC172C17300279B
:1019200002711B21482280F807C04772017282723F
:101930008273002B00F0C48394F85221920700F1C7
:10194000BF8394F8AB21D70700F1BA83D4F8BC2148
:10195000934204BF1A68C4F8BC21D4F8B421002A09
:1019600000F05585D4F8B8311A6802601860036831
:10197000C4F8B801002B00F0C684B4F8CA30A4F84B
:10198000CC30FFF77BBAD4F8B421002A7FF48AADBB
:101990000360C4E96C00C4F8B8018BE5CC390020C1
:1019A000A85701005917B7D11C05002004F17F0783
:1019B0003B462A4604F1EE0104F25D100FF0EAFA0C
:1019C0003946102204F1A00012F09FFE082204F113
:1019D000980104F1B90012F098FE94F8972094F859
:1019E000B81094F87E3084F88F5042F0010265F30D
:1019F000000143F00803012084F8972084F8B81010
:101A000084F87E3084F8905084F8915084F8925095
:101A100084F8935084F8945084F8955084F8965044
:101A2000C4F8B050C4F8B45032797071D4F8B03101
:101A300042F0030205213271F171002B7FF4B5AC45
:101A4000D4F8B421002A7FF4C6AC3360C4E96C66D4
:101A5000C4F8B861C7E408FB113340F2E242D04851
:101A60009BB202FB03F3A3FB0001CBA3D3E900234A
:101A7000FEF736FB2D1AFFF7F9BACA4840F6EE0119
:101A800002F060F8D8F80000FFF7A1BA94F871C12D
:101A900094F87071BC4500F04882DFF81483D8F8E0
:101AA0000070002F00F05484BC427FF4BEA994F86B
:101AB000727107F00707052F00F2E5850FF2040C9D
:101AC0005CF827F0AD1B00002D1B0000DD1A0000A4
:101AD000210E0000210E0000210E000090073FF5AE
:101AE000A4A907F00FFC014600283FF430AD037FA6
:101AF00094F87221032060F30202034384F87221F8
:101B0000A08D0B77022718230F714B77B4F874213F
:101B1000B4F87631C880B4F878010A84B4F87A2130
:101B20004B840F238884CA84CB770BE594F87371B8
:101B3000002F40F0858494F93D30002BC0F2F884EA
:101B400094F8723194F87C01C4F81071052262F3A4
:101B50000203012284F8723184F81421002800F075
:101B60004D85B4F87431B3FBF0F3134413FB00F369
:101B70009BB294F8722194F80601A4F80831C2F3DC
:101B8000C0039B0020F0070243F002031343B4F8A4
:101B90007801B4F87A2184F80631013984F8051106
:101BA000A4F80A01A4F80C21FFF73FB97E48B4F865
:101BB0003690B4F832A003F093F8074600283FF4BB
:101BC000C6AC027994F87211042060F3020142F06D
:101BD0000302182084F8721109EB0A033A71787134
:101BE000B4F87401B4F87611B4F87821388133442C
:101BF000B4F87A017981BA810F210022A7F8113057
:101C00004FF0FF33F881F9713A74FA743A757B75C5
:101C1000BB75FB753B767B76BB76FB763B777B773C
:101C2000BB773946204608F083FA2268B4F8CA30F8
:101C3000C8F80040002AC4F89051A4F8CC300ADA61
:101C4000D4E9011322F000428B422CBFEB186B1831
:101C50009B1AC4F89031554B13370122C4F88C718C
:101C6000104602219C6003F013F900283FF46FAC8A
:101C70004C4840F6A53101F065FF94F8E80094F86F
:101C8000E930FFF7CDB8218E91427FF4ADA940F243
:101C9000E24101FB03FB42F21071B4F8C6E001FB24
:101CA0000CB10139B1FBFBF189B28E457FF49CA9DF
:101CB000032388F80430FFF7A7B901221046022158
:101CC00003F0B2F86FF04700FFF7B6B8C3F3820035
:101CD00060F3020284F864204FF4A476FFF79EBA02
:101CE000D4F8B421002A7FF470AD3360C4E96C6687
:101CF000C4F8B86171E52B4840F6676101F022FF36
:101D0000286894F8EC10FFF7A8BA04F17F073B4667
:101D10002A4604F1EE0104F25D100FF03BF939465A
:101D2000102204F1A00012F0F0FC082204F1980146
:101D300004F1B90012F0E9FC94F8971094F8B82077
:101D400094F87E3084F88F5043F0080365F3000167
:101D500042F0010284F8971084F87E3084F89050A5
:101D600084F8915084F8925084F8935084F89450F9
:101D700084F8955084F89650C4F8B050C4F8B45024
:101D800084F8B820311D204608F03CFBD4F8B0316F
:101D9000002B7FF40AAB53E68D49FD1A07000000C3
:101DA00000CA9A3BA8570100CC3900202C0500201E
:101DB000B4380020E26C636CDF4F03FB1A23E3644A
:101DC0000DF064FA804694F8DC00C0F382000DF058
:101DD0005FFA08EB000306FB03F3D848E26C94F8C3
:101DE000141103F5742303F23F23A0FB03034FEA0E
:101DF000934808FB0BF073080244963B9A4209FB98
:101E000001FC28BF1A464FF0000EC4E91232C4F894
:101E10004480C7A3D3E90023A0FB0701C4F854C042
:101E2000C4F8E4E0FEF75CF9D4F810318446C44805
:101E3000A0FB0330800A09FB00F0A0FB0701BCA354
:101E4000D3E90023A5EB0C05FEF74AF9A6EB08073A
:101E500020F07F49B4F80881FFF727B9B94802F0AC
:101E60003FFF804600283FF472AB94F81931B64A20
:101E7000C4F81C21013B092284F81931427194F9FC
:101E80003D200379002AACBF08220E2243F0030351
:101E9000C271082203713946104412F061FCD4F873
:101EA0001C3188F80830C3F307221B0C88F809207E
:101EB00088F80A30D4F8B031002B00F00F8194F884
:101EC0005221910700F10A8194F8AB21D20700F169
:101ED0000581D4F8BC21934204BF1A68C4F8BC2120
:101EE000D4F8B421002A00F0CC82D4F8B8311A68B2
:101EF000C8F80020C3F80080D8F80030C4F8B881D2
:101F0000002B00F03B82B4F8CA30A4F8CC30FFF7C5
:101F10001EBB8E4840F6936101F014FE2868FFF75F
:101F2000C5B9C4F8C001FFF7C8BA94F8987194F81D
:101F30009921BA4200F0248194F89A1101F0070225
:101F4000062A00F299830FF2080C5CF822F000BF19
:101F5000F91F0000210E0000210E0000210E0000DC
:101F60006D1F00006D1F0000210E0000B4F89C31B1
:101F7000A4F85E3001F00703B4F8A021B4F89E91F4
:101F8000B4F8A281A4F86220042B00F04F820B4623
:101F9000062262F3020384F89A31D4F80071002F0C
:101FA00000F03D823868002800F039823B7F4268AB
:101FB000B4F82CC0C4F8002143F003033B7702229D
:101FC00009237B773A71B4F85E10B4F862207A8402
:101FD0001523FB77A7F806C03984A7F82490394663
:101FE000A7F8268007F060F907F068F994F8E80090
:101FF00094F8E930FEF714BF524802F071FE034630
:1020000000283FF4A4AA94F89A21B4F89E71B4F879
:10201000A211A4F8D6700120A4F8D81060F302022F
:10202000092184F89A2159711979D4F8B0219F8136
:1020300041F003014FF0140CD872D87300271971C6
:102040001B20482183F807C05F7218729972997338
:10205000002A00F0D18194F85211890700F1CC8157
:1020600094F8AB11CF0700F1C781D4F8BC118A42B4
:1020700004BF1168C4F8BC11D4F8B411002900F0F1
:10208000E782D4F8B821116819601360C4F8B83138
:102090001A68002A00F0FF81B4F8CA30A4F8CC30E6
:1020A00094F8E80094F8E930FEF7BABEC4F8C061CD
:1020B000FFF79CB90D233572F3710227FFF76CB956
:1020C000D4F8B421002A7FF44DAC0360C4E96C005D
:1020D000C4F8B8014EE41E49FFF70FBBD4F8B42191
:1020E000002A7FF402AFC8F80030C4E96C88C4F855
:1020F000B88105E7E0457FF4C4A803232B71294686
:1021000007F0D2F8D4F80051002D00F06A82286858
:10211000002800F066824368C4F8003103232B7165
:10212000294607F0C1F807F0C9F8FEF77EBE00BFE8
:102130008D49FD1A0700000000CA9A3B83DE1B434D
:102140005917B7D1CC390020FF410100A857010031
:1021500089310000D14840F6375101F0F3FC38686E
:10216000B4F85EC0B4F86210FFF797BBCC49FFF734
:10217000C4BACA4840F6780101F0E4FCFFF70ABB94
:1021800094F8A82194F8A91191423EF44EAE94F827
:10219000AA1101F00300032800F0868100287EF4D4
:1021A00044AEC04802F09CFD014600283FF4CFA990
:1021B00094F8AA3194F8AC2194F8AB71012060F343
:1021C0000103C3F3820060F30202C3F3421060F321
:1021D0000612C7F34007087984F8AA3167F3C302EF
:1021E00084F8AC21C3F3820C40F00300C3F3421324
:1021F000032716220871CA7181F808C04B724F710B
:102200000022204607F094FF7DE6B4F8A421002ABE
:1022100040F0B78084F89931A4F8CC20FFF734BBA4
:10222000238E33440633A4F8EE3007F06BF83B6896
:10223000D4F800215A60C4F8007107F063F803680D
:10224000D4F800215A6094F8EC30B4F8EE10C4F8D9
:102250000001C3F382085B09FFF7EEB98F4840F62F
:10226000563101F06FFC94F8E80094F8E930FEF77D
:10227000D7BD8C4802F034FD00283FF468A994F8DB
:10228000252194F82631013A84F82521027943F07A
:102290000103062184F8263142F003024171D4F88B
:1022A000B03102710B216FF00E020C2701724272E5
:1022B00005214FF0FF32C7718172C2720273002B89
:1022C00078D094F85221910774D494F8AB21D207B6
:1022D00070D4D4F8BC21934204BF1A68C4F8BC215E
:1022E000D4F8B421002A00F08381D4F8B8311A68F8
:1022F00002601860C4F8B8010368002B7FF4CCAE0C
:10230000C4F8C001C8E6C4F8C001FFF736BB06F048
:10231000F9FF1323A28D87F81C803B7194F8643079
:102320003868FA80C3F302037B7794F86530C3F30F
:102330000203BB77394606F0B7FF06F0BFFF94F8FB
:10234000EC30B4F8EE10C3F382085B09FFF774B900
:1023500094F8723103F00703052B00F2948101A079
:1023600050F823F0AD1B00002D1B0000DD1A00000B
:102370002B0E00002B0E00002B0E0000C4F8C081B5
:10238000C1E594F89A01B4F8A671A4F89E2100233F
:1023900063F3020084F89A01A4F8A431A4F8A271AE
:1023A000FFF772BA1A68026018600368C4E96D002A
:1023B000FFF780B8D4F8B421002A96D10360C4E9AD
:1023C0006C00C4F8B80197E71A6832601E60336881
:1023D000C4E96D66FFF707B81A682A601D602B68AC
:1023E000C4E96D55FFF757B91A6832601E6033684B
:1023F000C4E96D66FFF7F1B9D4F8B41100297FF490
:1024000040AE1A60C4E96C33C4F8B83140E61A68CB
:10241000026018600368C4E96D00FFF7ABBA1F489B
:1024200040F6375101F08EFB3868BFE5B4F8A421BF
:10243000002A40F0C78084F89971A4F8CC20ACE55C
:10244000184802F04DFC014600283FF480A80379AB
:1024500043F003030B71112003220F23C8714A714B
:102460000B7294F873314B720022204607F060FE25
:1024700094F8703184F871310023C8F80030FFF708
:1024800066B81A68C8F80020C3F80080D8F8003091
:10249000C4E96D8834E5C4F8C031FDE5A8570100F2
:1024A000A1D80000CC390020080784F8A921C1F385
:1024B000820240F1AF8094F8AA21022161F38402E4
:1024C00084F8AA2194F8AA2157064FEA521140F144
:1024D0009980022161F3471284F8AA2194F8AA1185
:1024E00094F864C094F8650094F8AB21C1F38207B6
:1024F0000CF0070C00F00700C2F38002BC4508BFD7
:1025000000275200B0EB511F42F001024FEA511177
:1025100008BF002142EA4112023B42EA870206213B
:1025200084F8E93084F8EC2084F8EA10FEF7A6BCC1
:102530005A4802F0D5FB014600283FF408A8037969
:10254000182243F0030303714271B4F87421B4F804
:102550007631B4F878010A81B4F87A214B811023DE
:102560008881CA81CB7194F87C310B74B4F87E31C8
:10257000B4F88001B4F88221A1F81130B4F88431A4
:10258000A1F81300B4F88601A1F81520B4F8882149
:10259000A1F81730B4F88A31A1F81D30A1F819005C
:1025A000A1F81B2020463A4607F0C2FD94F870318E
:1025B00084F8713194F8E80094F8E930C8F80070B4
:1025C000FEF72EBC00200B4660F30203A4F89E2108
:1025D000B4F8A62184F89A31A4F8A401A4F8A221A1
:1025E000DBE42F4840F6766101F0ACFA286892E50A
:1025F0001A6802601860C4E96D007DE6B4F87631AF
:10260000FFF7B7BAC8070FD5012161F3471284F865
:10261000AA2163E7D10710D594F8AA21012161F31B
:10262000840284F8AA214DE711F0040118BF0421A7
:1026300061F3471284F8AA2150E712F004020DD08A
:1026400094F8AA21042161F3840284F8AA2139E7CD
:10265000116819601360C4E96D3319E594F8AA1183
:1026600062F3840184F8AA112CE70D4840F65F510B
:1026700001F068FAFEF702BC094840F65F5101F02C
:1026800061FAFEF764BF064840F6634101F05AFA6A
:1026900094F8E80094F8E930FEF7C2BBCC3900208A
:1026A000A8570100000000002DE9F04F9C4695B0AE
:1026B0005CF80C6B1D46136886460C4660462E314E
:1026C000174605F1080A0322D3F80090CDF828E058
:1026D00005F11C0812F019F804F12A0104225046F1
:1026E00012F013F804F13A010522404612F00DF8F9
:1026F0004046052102F0C2FC95F8213000F03F0071
:1027000060F30503012885F821300AD994F83F3099
:1027100003F01F02053AC3F304010B2A85F82210C7
:1027200002D915B0BDE8F08F3A6896F8DC100020A9
:102730009060B4F83480A5F8128094F8362094F8AC
:1027400037005B0942EA002263F38401AA82638EA8
:1027500086F8DC10ADF830300CF098FD034696F8A2
:10276000DC000B93C0F382000CF092FD0B9BDFF8B2
:1027700018C394F83110AA8A40F2E24B0BFB08F818
:10278000184408FB00F000F5742000F23F20ACFB79
:1027900000C04FEA580C800C0BFB01F1ACF1960C19
:1027A000A862C5F82CC0E963218FAF4BADF8361095
:1027B00042F2107C0CFB0181AC48434402F1060C50
:1027C0000139B3FBF8F3B1FBF8F1A6F8C61099B2E2
:1027D00061454044A6F8D210B0FBF8F0A6F8CA0054
:1027E00002DD891A063989B2A6F8CE1004225146B4
:1027F00006F1E00011F089FF237F04F11E0A514623
:10280000C3F38013062212A88DF8403011F07DFF2B
:10281000237F4FF48072A28399F82A0097F812B0B0
:10282000C3F340128DF83C200B920BF0FFFF0146E2
:10283000062204F12B00002940F0E58011F090FF02
:1028400004F12503BBF1FF0F0E9304F11F0300F009
:10285000E3801A46514658460BF04EFAA27F0E9876
:102860000232A27712A9062211F04FFF96F8DC304F
:10287000698AAA8AA286C3F3820384F83830BDF835
:102880003630E3866186304607F002FF2146288213
:10289000E0807C680A9806F007FD2B8AE38012230B
:1028A00023710B9B2068002B00F0B28095F809E0A3
:1028B0002B7A95F80BC0A97A95F8212041EA0C21D2
:1028C00043EA0E234B4042F0400201216B8485F81D
:1028D00021202177214606F0E7FC06F0EFFC95F871
:1028E0004900012100F007000CF0E2FB604A4FF0C4
:1028F000000A8346312300F25240A0FB02013360FC
:10290000C6E901AA56A3D3E90023FDF7E9FBFC6859
:10291000BDF83020AD6A20F07F4040F2E24303FB77
:10292000023302215246F060A4F5AE7401201C442B
:1029300002F07AFA484607F02FF9821C4D4BCDF889
:102940000090D2B25046012103F0F4FD0128A8EB1B
:102950000508A4EB0B0477D099F82830DB076BD47B
:10296000304607F095FEDFF808B1A8FB0B893CA3C1
:10297000D3E90023054649464046FDF7B1FB3E4AF0
:10298000069620F07F4AAAFB0223072101FB0A33A7
:1029900040F24511BF6808913849079138490591BF
:1029A000B8EB020069EB0301F368049300264FF4CF
:1029B0007A7200230396FDF793FB29A3D3E9002342
:1029C0008446A4FB0B01CDE901ACFDF789FB05357D
:1029D00020F07F40EDB2313F3B4600902A46304622
:1029E000012103F03BFD30F0020304D025484FF4F1
:1029F000A37101F0A7F801221046022102F014FA97
:102A000015B0BDE8F08F04F1240111F07EFE17E748
:102A10009DF83C3023775DE70E9811930622002144
:102A200011F09EFE9DF84030A377119B12A9184625
:102A3000062211F06AFE19E70023012200931846CE
:102A4000114603F077FD8BE706F0D2FC814583D079
:102A50000C4840F2D31101F075F87DE7AFF3008028
:102A60008D49FD1A070000007FC3C901FF596202AA
:102A700000CA9A3B39D100008D49FD1A99D0000057
:102A8000ADD00000F457010083DE1B4300000000BE
:102A90002DE9F04F0E7F1746126891B00C464FF0AB
:102AA000000A1D46C2F808A0C6F3C013D2F8009071
:102AB0008DF834302431062280460EA82E6811F09D
:102AC00024FE237FA4F81CA0797C97F812A0C3F3FE
:102AD000401211F001018DF830200B9204F12B000F
:102AE0004FF0060200F0E78004F11E0111F00DFE28
:102AF000BAF1FF0F04F1250304F11F0B00F0E5808C
:102B00005A46504604F11E010D930BF0F5F8A27FD2
:102B10000D9B0232A2770EA91846062211F0F5FD90
:102B20006B8AAA8A6386B9F83030E386A2860CF0F5
:102B3000ABFB84F83800304607F0AAFD0346288234
:102B40002146E38040467C6806F0AEFB2B8AE3809A
:102B5000122323710B9B2068002B00F0A88095F8AE
:102B600009E02B7A95F80BC0A97A95F8212041EA63
:102B70000C2143EA0E234B4042F0400201216B84BA
:102B800085F821202177214606F08EFB06F096FB82
:102B900095F84800DFF868A1C0F3C00100F0070015
:102BA0000CF084FA00248346312300F25240336053
:102BB000C6E901444CA3D3E90023A0FB0A01FDF7B9
:102BC0008FFAB5F812C0FB6820F07F40F060224613
:102BD0000221012040F2E24808FB0CF8A3F58775BA
:102BE00002F022F9484607F0C9F9021DD2B2404B63
:102BF00000920121204603F09DFC2346032201217F
:102C00000094204603F096FC304607F041FD0696FE
:102C100040F2C923BF68374A0893374B07920593A0
:102C2000F368049388FB0A8900F1050C2EA3D3E90D
:102C30000023404649465FFA8CF60394FDF750FAAC
:102C4000104619464FF47A720023FDF749FA26A37D
:102C5000D3E90023844649464046CDF808C0FDF735
:102C60003FFAA5EB0B0584461FA3D3E90023A5FB80
:102C70000A01CDF804C0FDF733FA313F20F07F4060
:102C80003B46009032462046012103F0E7FB30F03E
:102C9000020304D0194840F2CA2100F053FF012278
:102CA0001046022102F0C0F811B0BDE8F08F9DF887
:102CB0003030237767E711F053FDBAF1FF0F04F1CD
:102CC000250304F11F0B7FF41BAF184606220021D9
:102CD00011F046FD9DF83430A3770EA95846062220
:102CE00011F013FD1CE700BF8D49FD1A070000001D
:102CF00051D2000055D2000069D2000038580100BE
:102D000000CA9A3B000000002DE9F04F91B0044644
:102D1000079090F93D00E4680B940028B8BF143484
:102D2000CDE9091205934FF0FF024FF00003B8BF41
:102D30000B94DDE91A7BCDE90D3390461E468DF8E4
:102D4000332006921C469A4604931D4641E09DF8A6
:102D50003300FF2859D0B8F1FF0F09D00E9B53451F
:102D600006D099484FF4BB7100F0ECFE9DF833009B
:102D7000831E122B00F29A80042840F2A480069B46
:102D8000FF2B40F08F80053880B207F089FC079B4D
:102D9000834200F08B80099990F93D203B7800290F
:102DA00040F09F80002A12DBC268DDF83490DDF825
:102DB0002480283208920A9A12684A45C0F0A080FE
:102DC000089ADDF838A09DF8338004924D469C4265
:102DD0006FD20FAB02937D4B01930DAB0221009399
:102DE0000DF133020EAB00200F9103F0E9FB022836
:102DF0006CD00F9B002BAAD0734840F26D1100F0ED
:102E0000A1FE9DF83300FF28A5D10A9B1A683B78E4
:102E1000954238BF1546A34242D9049BDFF8B481DE
:102E2000EB18A3FB0801072606FB031164A3D3E9F3
:102E30000023FDF755F9664BA3FB0020059AC0F36C
:102E40008F218A424FEA902040F2A9800FF2701A37
:102E5000DAE9009A06930CE0FDF742F9069BA3FB22
:102E60000030059BC0F38F218B424FEA902040F247
:102E700096800BEB440C0BF81400090A8CF8011037
:102E8000049997F800C00134283501EB050EE4B22F
:102E9000AEFB0801A4454A46534606FB0E11DBD89B
:102EA0000A9B1D603C7011B0BDE8F08F3B789C42DE
:102EB0008FD39DF83330FF2BF4D10A9B1B689D42C2
:102EC00038BF1D46ECE73B78069080E70F9B022B4E
:102ED0008FD10221002003F0B9FB0F9B022BF8D009
:102EE00087E7002AC168DDF834904DDA01F13C0231
:102EF00008920A9A12684A454FF01408BFF460AF6E
:102F0000954238BF15469C4237D2049B0B9A1A97BC
:102F1000134498441BE0FDF7E3F82D4B059FA3FBFA
:102F20000030C0F38F26BE420BEB440204F10103D4
:102F30004FEA16214FEA902005F1280533D20BF80D
:102F4000140051701A9A1278DCB2A24222D9294692
:102F5000484603F095FB049B1E4A2B448446C44517
:102F6000A3FB02014FF0070202FB03114FF0000A1E
:102F700013A3D3E90023CED21A9F0A9B1D60059BA1
:102F8000B34215D93B781BE701F1280208924FF0B4
:102F9000000810E70A9B1A9F1D603B7810E70A9B08
:102FA00000251D607EE70A9B1A9FC3F800A05546C6
:102FB0009DF83330FF2B7FF475AF26E7AFF3008029
:102FC00000CA9A3B000000007C58010085D8000030
:102FD0005917B7D18D49FD1A2DE9F04F8FB01C4616
:102FE00009934FF0FF0A00230431DFF8F890DFF86F
:102FF000F8B0236004930446089115460C9305939A
:103000008DF82FA00DF134080CAF0226CDE9019800
:1030100000972B460DF12F02214600200D9603F05C
:10302000CFFA022830D00D9B002B33D19DF82F0012
:10303000FF2837D00538C3B20F2BE7D880B207F08E
:103040002FFB0028E2D090F93D30002BDEDBC36877
:103050000C9ABAF1FF0F03F104030CD00599079302
:103060001046069203F00CFB049B089A99188842BC
:10307000DDE9062319D8CDE904329DF82FA0C5E774
:103080002146002003F0E2FA0D9B022BF8D00D9BA5
:10309000002BCBD05846522100F054FD9DF82F0054
:1030A000FF28C7D1BAF1FF0F10D0DDE904320C4878
:1030B0001344A3FB0001072202FB031106A3D3E97B
:1030C0000023FDF70DF8099B803018600FB0BDE8B4
:1030D000F08F00BFAFF3008000CA9A3B00000000F1
:1030E0008D49FD1A85D800007C58010000000000C1
:1030F00070B51C4682B01546064601AA022001950D
:10310000FFF76AFF23680BB30198431B1B021FD410
:10311000294603F0B5FA1A4B0246A0FB0301072328
:1031200003FB021114A3D3E90023FCF7D9FF2268A3
:1031300002442260002A09DB40F2E24101FB06F072
:10314000904203D2121A9042FCD3226002B070BDAA
:103150000146284603F094FA094B0246A0FB0301FE
:10316000072303FB021104A3D3E90023FCF7B8FFF4
:103170002268121A2260DDE700CA9A3B00000000B4
:103180008D49FD1A000000002DE9F041B0F88021C2
:1031900088B0054640F2E243454805AE03FB02F322
:1031A000002783FB000106243FA3D3E900237760B7
:1031B0000597B7608DF80F40FCF792FF0DF10F02F5
:1031C0000196B5F87631009204460121284604AAFA
:1031D0000494FFF799FD9DF80FC00CF1FF34E4B2A1
:1031E0000DF11603394603EB44042F4605F10C0E8E
:1031F0004FF6FF7097F8813197F8802142EA032259
:103200000FFA82F8BCF1000F09D03346824203D096
:103210001988914217D0012102339C42F6D102371E
:10322000BE45E7D1F1B9BDF81430D5F8F01040F241
:10323000E24202FB03F2180AC5F810210B70487035
:1032400008B0BDE8F081D5F8F01040F2E24303FB8E
:1032500002F3120AC5F8103181F800804A7008B0F4
:10326000BDE8F08195F8E82095F8703185F8E920FF
:1032700085F8713109F0F2FED5F8F03013F8052C1D
:1032800003252A4311240F20202103F8052C03F8DD
:10329000045C03F8024C03F8010C197008B0BDE897
:1032A000F08100BFAFF300808D49FD1A07000000D8
:1032B00000CA9A3B000000002DE9F04F83B004469D
:1032C0000EF016F810F0FF0F0AD10BF005FFA04822
:1032D00021460DF0F5FE03B0BDE8F04F0DF0DABF6A
:1032E0000EF026F85FFA80F80EF0B0F8C6B20EF0D5
:1032F000B7F807460EF0F4FAC5B20EF0DFFA8246D0
:103300000EF06CF881460BF0E7FE002E40F0AB802B
:10331000002D40F0BA80FF27B8F1000FD7D0A37D71
:10332000190700F1A880002E40F0E781012006F087
:10333000B5F88046002800F0F781A3685FFA89F6A7
:10334000002B00F0D680A37D1A0740F1E28198F8A7
:103350001C0010F00F0340F09E8098F81D30252BC4
:1033600000F2A481042006F099F80028AFD00EF0F6
:10337000CDF9A36A814643B9E28C40F2712303FB85
:1033800002F3B0FBF3F203FB120923687148DB6818
:103390000722A3FB000102FB03116BA3D3E9002367
:1033A000FCF79EFEA0F242334B4590D30DF0F0FFA8
:1033B000D4F808A00DF0CAFF98F81C200178C2F3D9
:1033C0008012D20101F0500142F025020A4322216D
:1033D00002704170834638460BF036FAE27D009069
:1033E000D20701460BF1020040F1AD81002900F047
:1033F000AA819BF8002042F040028BF800200622B0
:1034000011F083F9062208F11E010BF1080011F0FA
:103410007CF904220AF108010BF10E0011F075F994
:1034200003220AF10C010BF1120011F06EF90122D6
:10343000BAF812308BF8152001930EF067F9D4F822
:10344000109000F5DB62B9F1000F00F0A281019B42
:1034500040F2E24101FB03F1B9F1000F01DB4A4503
:103460007AD98944F8E7A07DF9B2C0F3C0000BF027
:1034700009FA074650E7002E7FF458AF38460BF0A4
:1034800073FA00287FF452AF21E75FFA8AF00BF05D
:1034900039FA074640E7012B40F0E08098F81D30EC
:1034A0000C2B7FF414AF08F12409C00949463A46B1
:1034B0000BF0F0FA00287FF455AFE37DDB0700F155
:1034C000CE81A37D98F81C00C3F38012B2EBD01F0D
:1034D00000F0FF81C3F3C10398070AD598F91C30A7
:1034E000002B06DA98F8293003F0C003402B3FF494
:1034F00039AF98F81C0010F00F0340F0AF8098F837
:103500001D30252B3FF6E3AE94F91620002A03DA8E
:10351000A268002A00F05481252B98BF4FF00009C3
:1035200000F2C480002B3FF4D2AEA368002B7FF4DE
:10353000CEAE002D14BF3946FF214A4630460CF06E
:10354000B3FCC4E6AFF3008000CA9A3B0000000061
:10355000DDFC00008D49FD1ACF489BF81510A9EB42
:103560000202A0FB0232C2F38F220131ABF8162017
:103570008BF81510BAF81200BAF81410A28AABF83A
:103580001C20ABF81800ABF81A1005220AF11C0138
:103590000BF11E0011F0B9F89AF822109BF82320C5
:1035A00061F304028BF823200BF06EFE9BF82320BE
:1035B00060F347128BF8232058460DF049FE0DF0BA
:1035C0008DFE002840F0EB80B44821460DF078FDD8
:1035D000002E40F0F080227942F00101D3072171E2
:1035E00000F1E38005F078FF0D22064602714FF6E8
:1035F000FF7298F81C80C280594624221C3011F0BA
:1036000084F8337FB460C8F3401868F34513337708
:103610000EF020F80021306108460DF025FE002D47
:1036200008BFFF27B776E27DA9EB000012F0010288
:10363000706103D0009B1A1E18BF0122737E62F3D3
:103640000003737605F048FF3146F060306805F0FE
:103650005BFF03B0BDE8F04F05F066BF062B69D0F5
:10366000022B6DD0012B21D198F81D300C2B7FF44B
:103670002EAE08F1240AC00951463A460BF00AFA68
:103680008146A8BBA37D98F81C00C3F38012B2EB5F
:10369000D01F00F0EB80C3F3C103980704D598F95D
:1036A0001C30002BC0F2EB8098F81C0000F00F00DB
:1036B00004287FF40CAE98F81D30252B3FF607AE9A
:1036C000A37DDA077FF503AE0DF040FE98F81C30BD
:1036D0000278C3F38013B3EBD21F7FF4F8AD083048
:1036E000062208F11E0111F000F800287FF4EFAD6A
:1036F00098F81D304FF0000914E7394628460BF0C2
:1037000063F900287FF412AEA37D1B077FF5DFADC0
:103710000CE6FF2F26D0237EDB1BB3FA83F35B0975
:10372000002B7FF414AEE4E65D4840F2BA2100F0CD
:1037300009FA02E698F81D30252B7FF6E5AEB5E7CD
:1037400098F81D30E8E6A27D9BF80010C2F38012C5
:1037500062F386118BF80010062204F1190110F0B3
:10376000D4FF4FE698F81C00C3F34013C0F3801257
:1037700093427FF4C0AE062208F11E0104F11F003F
:1037800010F0B3FFB0FA80F35B09002B7FF4DFADDC
:10379000AFE68BF816908BF817909146EAE6404812
:1037A00040F2333100F0CEF90EE73D4840F2593196
:1037B00000F0C8F916E70DF003FE8AF8A5000AE745
:1037C00096200DF063FE00200DF0C8FD002D14BF03
:1037D0003946FF21304600220CF066FB00287FF4BA
:1037E00076AD0DF0B3FD98F81C300278C3F380136A
:1037F000DB01054602F0700243F0030313430C2281
:103800002B7038466A700BF01FF8E37DDE07014627
:103810004AD5002848D02B78284643F0400300F8CA
:10382000023B062210F071FF08F11E01062205F18D
:10383000080010F06AFF28460DF00AFD0DF04EFD5D
:10384000002840D10DF05AFFA37D164843F0010334
:103850002146A37503B0BDE8F04F0DF031BC3846EA
:103860000AF0F2FF00287FF444AE2AE65146062211
:1038700004F1190010F039FFB0B3A37D0BE798F8FD
:10388000293003F0C003402B7FF40EAF98F81D30B1
:103890004FF0010946E600BF5917B7D131FC0000CF
:1038A000AC590100F1FC0000A37D2A78C3F380131A
:1038B000284663F3861200F8022B04F11901062250
:1038C00010F023FFB0E70A484FF46D7100F03AF9A9
:1038D000B8E74946062204F1190010F006FF002857
:1038E0003FF440ADA37DF5E598F81D301AE600BF22
:1038F000AC59010038B5094D4FF0FF324FF0FF339E
:10390000284610F0E4FF044601F0A8F910B1204663
:103910000EF054FA0FF0D2FEEEE700BFA80600202A
:1039200010B50F480F4C0FF089FA206098B110F0D5
:10393000E0FA206810F0D2FA2068836823B19B6C0B
:1039400013B1094900229847206883689B6A2BB10C
:103950009847002010BD6FF01500FBE71846F9E707
:10396000C85E0100B80A00206D3900002DE9F04F53
:103970006B4D286883685B6B8DB043BB286810F083
:10398000B2FA286810F0AFFA68B1664E3368344670
:103990000BBB65480022002310F099FF3060D0B9BE
:1039A000286810F09BFA286883685B6B002B60D056
:1039B000984700285DD0DFF884A15C4E57469AF8FE
:1039C0000030032B55D8DFE803F01D30799B984772
:1039D0000028D6D1D2E7286883685B6983B1216863
:1039E0008A898968984701462068083010F0B2FF3C
:1039F00020688689002ED6D10EF0E0F92660D2E745
:103A00001946F1E74A4C28680122214610F060FA75
:103A100078B323785A1E012AD1D8012B0CBF032377
:103A20000423336001233B70C9E7DFF80491326857
:103A300099F80030DFF8FC802868012B0CBF0321C7
:103A40000421891A414410F043FA33681B1A0446D2
:103A50003360002B50D10123CDE9009300220023D5
:103A6000062001F09FF8DFF8D8B0CBF8000018B9B5
:103A700038700DB0BDE8F08F99F80030CBB998F8E8
:103A800002203260012B0CBF032204222949083096
:103A900010F04EFFDBF80000083010F06BFF3368C9
:103AA000984209D2DBF800000EF088F903233B703E
:103AB00022E0B8F80220E4E70223F8E7DFF880808C
:103AC0003268D8F80030286899899B68194410F04A
:103AD000FFF9D8F800108B8903448B813368A3EB7E
:103AE00000080446C6F80080B8F1000F04D112485F
:103AF00010F00BFF87F80080002C7FF460AFB8E770
:103B000032682868212A28BF212203A910F0E0F991
:103B100033681B1A04463360002BEDD1C7E700BFA2
:103B2000B80A0020B40A0020C0060020BC0A002009
:103B3000634B00205E4B0020A8060020624B002053
:103B4000B00A0020F8B505460F464FF02002EFF30B
:103B5000118382F31188BFF36F8F234C206810F01C
:103B6000C8F9206810F0BAF9002D36D12E46206829
:103B7000042110F0C3F92068FF2110F0BFF9B11D36
:103B80002068C9B210F0BAF92068AA2110F0B6F97D
:103B900036B1013D15F8011F206809BB10F0AEF9E0
:103BA0002068F9B210F0AAF92068C7F3072110F0D5
:103BB000A5F92068C7F3074110F0A0F92068390E75
:103BC00010F09CF9FEE701332F2A08BF1E46EA5C7D
:103BD000002AF8D135449E1BC9E700263346F6E794
:103BE00010F08CF9D6E700BFB80A002070B518486D
:103BF00088B001F039F800220023CDE90623002324
:103C00006FF00802CDE90323CDE901330093114998
:103C1000114B12484FF480620FF05EFE10490F48BE
:103C20000B4D104E104C11F096F94FF0FF324FF043
:103C3000FF33284610F04BFE0146304610F065FE7B
:103C400020688368DB69002BEFD09847EDE700BF61
:103C500090060020A04F0020F538000050070020FB
:103C6000CF5E0100C0060020B80A00202DE9F84F01
:103C7000B0F8189019F00808044693460DD00129B1
:103C80000CBF49F0100949F02009A0F818908BF3F7
:103C90001188BFF36F8FBDE8F88F09F0070902297B
:103CA00007D1204610F05AF90028F0D00128238BC4
:103CB00050D16769218B002F15DA256821F00701A3
:103CC000C4E9008841F0010121830026218B01F025
:103CD000070ACA4502D0A368002B5CD10DB9002E9B
:103CE00074D0002358E001F007035A1F012A20D89E
:103CF00021F00701062B256889B2C4E900880CD1A0
:103D0000002D2B4638BF00232BB1628B1B6801327C
:103D10006283002BF8D141F002012183204610F08C
:103D20001DF906460028D1D0238B43F020032383BE
:103D3000CBE7042B0CD121F0070189B22183204667
:103D400010F00CF905460028BFD041F02001218376
:103D50000025BAE7032809D1226923F00703166872
:103D600043F00603238300252F46AFE7042806D13E
:103D7000226923F00703566843F00403F2E705289D
:103D800006D1226923F00703966843F00503E9E7AB
:103D900000252E46E8E7012341F0080121838BF33B
:103DA0001188BFF36F8F03BB002D33D116B12149AA
:103DB0002046B0474FF02003EFF3118B83F31188B7
:103DC000BFF36F8F238B23F008032383238BDA0643
:103DD00028D523F0100323830121B4F8189009F0AB
:103DE000070900297FF45BAF51E7A1680029DBD008
:103DF0000B68D1F804B0002B38BF00239946524617
:103E00003B462046D847B9F1000FCDD0D9F8003055
:103E10004946EEE729463B46524620462D6810F0BB
:103E2000B9F8C1E713F020011EBF23F0200323835C
:103E30000221D2E7C13F01000E4A70B5841AA310D7
:103E40000D4C5C430546E4B20C2000FB04200E46FA
:103E50004021084410F091FB011E05DB074B03EBEA
:103E6000C40463689847002128463346BDE8704083
:103E7000184700BFD00A0020B76DDBB66C550100B3
:103E80002DE9F041104E841BA310104C5C43E4B2AA
:103E90000C256543804605F140000F463044402123
:103EA00010F084FB011E09DB094A7319C3E90E27D0
:103EB000084B53F83430BDE8F041184740463B46C4
:103EC000BDE8F041184700BFD00A0020B76DDBB64F
:103ED0000F4601006C550100002270B50121044617
:103EE000104600F027FB002000F0F2FA0F480EF019
:103EF00091FE0F4B984215D110F0B1FDE6680D49C7
:103F0000304610F07AF800280BDB01253564E468B0
:103F1000084904F11C0010F070F8002801DBE5648A
:103F2000002070BD6FF00400FBE700BF6D3F000094
:103F30000000AD0B7C55010001460C2309484B43A2
:103F400070B5C418D4E90E5600224033A263184459
:103F500010F04AFB2DB132462B460348BDE87040B5
:103F6000184770BDD00A0020FC05002010B10128C0
:103F700004D07047034B1B6C5B0701D1FFF7DCBF1C
:103F8000704700BFD00A002008B54FF02003EFF3C0
:103F9000118183F31188BFF36F8F124A136843F0C6
:103FA000020013F0010310600CD04FF08042D2F8F1
:103FB0000C34D2F80C2413F0010303D00A4810F09B
:103FC00013FB012381F31188BFF36F8F23B1BDE889
:103FD00008400020FFF7B0BFBDE8084001200EF008
:103FE00029BE00BF200B0020100B002010B5074C8D
:103FF00023782BB94FF4A57010F0A9FF012323708B
:10400000BDE8104000200EF015BE00BF644B00203C
:10401000094BBFF35B8F53E8002F22F0020143E806
:1040200000100028F7D1BFF35B8FD30702D4012023
:104030000EF04CBE704700BF200B00207FB5002261
:104040000123CDE9022304ABCDE90433094ACDF8BD
:1040500000D06B46CDF804D010F0FCFA002805DB48
:104060004FF48042002368460FF0C2FB07B05DF8B2
:1040700004FB00BF21460100024AC3B21C2003FB1F
:1040800000207047D00A0020094BBFF35B8F53E834
:10409000002F42F0010143E800100028F7D1BFF3E0
:1040A0005B8F930702D401200EF0C4BD704700BFA0
:1040B000200B0020094BBFF35B8F53E8002F22F049
:1040C000010143E800100028F7D1BFF35B8F93078D
:1040D00002D401200EF0FABD704700BF200B002073
:1040E0002DE9F8433A49BFF35B8F0646012251E8B8
:1040F000003F41E800200028F9D1BFF35B8F33B9BE
:10410000344935484B60CB608A600FF089FF731EDD
:10411000012B32D8012E07D14FF08043D3F81C3445
:1041200003F00303012B28D010F00BFF044618B94D
:104130002A4B1B78002B44D14FF02003EFF311855D
:1041400083F31188BFF36F8F0124254FDFF894802C
:10415000DFF894904FF08042D2F81834D2F8182447
:10416000D2030CD503F00303012B01D0012E06D19D
:104170000CB385F31188BFF36F8FBDE8F883ACB142
:10418000284600F061FA4FF08042D2F81835002B33
:10419000E0D139680029DDD03B603B680123C2F8DB
:1041A0001835C8F88031C9F80030D3E70021212044
:1041B0000FF0D2FAE7E74FF080430222C3F804235E
:1041C000DBE74FF080430222C3F808230546BCE733
:1041D000240B0020C00A0020EC0A00208A4F002097
:1041E0000401004000E100E008000040821C084B90
:1041F00022F07F42C3F84025D3F80425904200D135
:104200007047D3F80405821C22F07F42F2E700BF1A
:1042100000100140074B00221A601B68064A074B3A
:10422000D3F840051368C01A20F07F4003441360A0
:104230000FF02EBD40110140280B0020001001405E
:1042400038B5104D104B0024C5F808451C601B689C
:104250000E4B4FF40032C3F880214FF48033C5F881
:10426000043322460121112000F064F9112000F0EE
:104270002FF9074A0123136002202B60FFF730FF5C
:10428000204638BD001001404011014000E100E02F
:1042900008100140F8B52D4BB0F1FF3F08BF18469C
:1042A0000138002840DD9842A8BF1846284C294A0A
:1042B000D4F804351268284E9B1A13F4000F23F02B
:1042C0007F4518BF0020013528444FF480311F4D31
:1042D000C4F80813A84294BF15185519D4F804253A
:1042E000D4F8403500279B1A376023F07F433068AD
:1042F000012B22F07F40C4F84005C4F8441304D1D8
:104300000F2010F024FE37603368144B4FF4003256
:10431000C3F88021D4F804052B1A23F07F43012B26
:1043200004D1FFF763FF0BE00020BFE725F07F43D8
:10433000C4F84035D4F804052D1A023D2B02F0D400
:104340004FF48033C4F80433F8BD00BFFFFF7F0093
:1043500000100140280B00204011014000E100E066
:104360004FF02002EFF3118382F31188BFF36F8FB8
:10437000064AD2F80405064A1268801A20F07F40E7
:1043800083F31188BFF36F8F704700BF00100140A7
:10439000280B00204FF02003EFF3118283F31188E4
:1043A000BFF36F8F0649074B0868D3F8043582F3D3
:1043B0001188BFF36F8F1B1A23F07F431844704797
:1043C000280B00200010014010B5114C114AA261C9
:1043D0000323C4E90433104BE36122664FF4806386
:1043E0000E4A0F492362626600231022E01DA36279
:1043F0006362E3622367E3666367A26610F05FF9B6
:104400000849204610F05BF92023A37110BD00BFBE
:104410002C0B0020F45E0100754B0020654B002042
:10442000FD5E0100015F0100094A0A4993680968BD
:10443000D967094998674B6843F080534B60002364
:1044400083F31188BFF36F8F9368D86F704700BFF5
:10445000104B0020C45E010000ED00E012498A68A4
:104460004FF038001044EFF3098C80E8F01F202053
:1044700080F31188BFF36F8F0C4F4FF000668A6A8C
:104480008A603E60906F0023936780F3118804B5C3
:10449000104600F083FABDE8044002F1380090E8CD
:1044A000F01F8CF309887047104B002004ED00E0EA
:1044B0001EF0040F0CBFEFF30880EFF30980816951
:1044C00011F8021C0229FFD001B510F0EDF801BD72
:1044D00043B2002B08DB012200F01F0002FA00F0BB
:1044E0005B09024A42F82300704700BF00E100E088
:1044F00043B2002B0DDB01225B0900F01F0002FA22
:1045000000F02033034A42F82300BFF34F8FBFF37C
:104510006F8F704700E100E0054B420900F01F007B
:1045200053F82220012303FA00F01040704700BF27
:1045300000E100E043B2002BA8BF03F1604301F1AA
:104540000101B8BF064B4FEA4111ACBF03F561430F
:1045500000F00F00C9B2B4BF195483F800137047BC
:1045600014ED00E008B572B6044B586A18B1002289
:104570005A6210F0A7FA62B608BD00BF104B0020C7
:1045800042F8203C009B42F81C3C0A49019B42F83F
:10459000183C029B42F8143C21F001014FF080735B
:1045A00042F8043C42F8081C0023203A82658367E5
:1045B000704700BFB34001000B4A0346906890B1BA
:1045C00013F1160F806E05D0A0F120029A4206D892
:1045D000834204D281422CBF0021012100E000214E
:1045E000002908BF00207047104B002008B5044682
:1045F0000E46154600F0B6F9084B20469C6000F0C8
:10460000CDF9284686F30988002163B681F3118825
:10461000BFF36F8F002200230FF04BFD104B0020E3
:10462000014910220A60704710ED00E072B6404068
:1046300080F31188BFF36F8FBFF34F8F30BF62B627
:10464000BFF36F8F704700BF72B6494081F3118886
:1046500020BF80F3118862B6704700BF30BFFFF7FC
:10466000FDBF00BF0E4A08B50E4B22F07F029A60D4
:10467000BFF34F8FBFF36F8FD3F8882022F47002FF
:10468000C3F88820EFF3148323F0040383F3148822
:104690000EF038FC0EF040FC00F036F90EF06EFC27
:1046A0000000000000ED00E001B572B60B4A506A50
:1046B00000281EBF0021516210F004FA62B6EFF329
:1046C0000580A0F110004FEAC0000549014409C966
:1046D0009847BDE80140034908470000104B0020FF
:1046E000FC530100ED48000010F05DF8202080F33D
:1046F000118808484FF40261401880F30988EFF3ED
:1047000014800221084380F31488BFF36F8FFFF7F2
:10471000A9FF0000405D0020EFF30880EFF309815E
:1047200001B5724600F064F801BD00BF38B5174B03
:1047300014469A6A9A6A9A6A0546900716D5586B83
:104740009A6A120604D519B19A6A22F080029A6216
:104750009A6A9A6A9A6AD2060BD400200B4A936A24
:1047600043F0FF0393620023237038BD6FF0150000
:10477000EEE75B681B05F0D52946FFF71DFF002813
:10478000EBD080F309880220E8E700BF00ED00E0ED
:104790000D4B9A6A9A6A9A6A920508D59A6B9A6A38
:1047A000120404D518B19A6A22F400429A62064BA8
:1047B0009A6A9A6AD20558BF9A6A9A6A002042F4A5
:1047C0007F429A620870704700ED00E0074B9A6ADA
:1047D0009A6A9A6A9A6A9A6A9A6A9A6A6FEA024224
:1047E0006FEA12429A620020704700BF00ED00E0BD
:1047F00070B5374B5B688AB00E46C3F308030025DB
:1048000085F31188BFF36F8F02F07F41B1F17F4FC5
:1048100011D102F00C0108290DD0110701D4064670
:1048200001250022033B8DF80720032B48D8DFE841
:1048300003F0043F433C2E46F3E7254BDA6A920728
:104840003ED4DC6A14F0804409D028331B78F3B1DD
:104850000DF1070201213046FFF768FF04469DF87D
:10486000073093B92022314602A80FF04EFF099B72
:1048700045B3C3F3080222B96FEA53236FEA432317
:10488000099302A920460FF00DFF0AB070BD114B2D
:104890001B782BB10DF107010120FFF779FFDDE750
:1048A0000D4B188884B2002CD9D0FFF78FFFD5E7C5
:1048B0000DF107020021CEE70DF107010020ECE722
:1048C0000024CCE723F4FF7323F00103D8E700BFF3
:1048D00000ED00E029ED00E02AED00E0024A536916
:1048E00043F010035361704700ED00E0044B9968FA
:1048F000986A884203D003494FF080520A6070479B
:10490000104B002004ED00E0044800232021C218D1
:104910000133272B82F80013F9D1704700E100E042
:1049200008B50E4B9B68834207D1EFF3058393B123
:104930000B4A536843F0805353600EF0AFFD4FF0C5
:104940002003EFF3118083F31188BFF36F8FBDE86D
:10495000084010F014BA0FF049F800BF104B0020C7
:1049600000ED00E01FB5084B0193084B0293084B84
:10497000039301AB0093074A074B0121684600F0FF
:10498000A7F805B05DF804FB00000020000000005F
:1049900000000B0600000020000001201FB5836E00
:1049A000203B0193064B2022CDE90223012101ABDC
:1049B0006846009300F096F805B05DF804FB00BF70
:1049C00000000B15DFF884C0F0B50646002710463E
:1049D0008F4200DBF0BD56F827E0DEF8044094B3C8
:1049E00043B1651E2C4219D11F2C17D9DEF80020C7
:1049F000154213D1202CC2B2DEF80050DEF80800B8
:104A00000FD9B4F1004F0ED8013CB4FA84F4C4F1CC
:104A10001F046400072A44EA000406D96FF0150059
:104A2000D8E70824F6E73E24F4E725F01F051543F0
:104A300045F0100544F00104CCF80820501CCCF8D7
:104A40000C50CCF810400137C2E700BF90ED00E0F9
:104A5000034B05225A60BFF34F8FBFF36F8F704730
:104A600090ED00E0BFF35F8F014B00225A6070476A
:104A700090ED00E013490868082810B51ED8FFF72C
:104A8000F1FF114C49680022904201F10C0105D15F
:104A90000E4B1870FFF7DCFF002010BDA26051F82C
:104AA0000C3C23F01F03134343F01003E36051F861
:104AB000043C43F0010323610132E5E74FF0FF308E
:104AC000EBE700BF8855010090ED00E0754F002036
:104AD00010B5034C01232278FFF774FF207010BD3E
:104AE000754F002008B5084A00231278FFF76AFFC7
:104AF00010F1160F03D0054B0022072800DD08BD7A
:104B000098601A610130F8E7754F002090ED00E0E1
:104B10004FF02003EFF3118283F31188BFF36F8FFF
:104B200006490123C1F840354FF08041C1F878357E
:104B300082F31188BFF36F8F0020704700E00140BF
:104B400020B1034B800143F001031847704700BFB9
:104B500050550100074A0346106828B9D96831B199
:104B6000196921B1136070476FF0440070476FF00E
:104B700015007047D40B002070B500F0FD06012E23
:104B800005460BD106480FF09DFE044620B1314684
:104B900008300FF0B6FE2575204670BD0024FBE7F7
:104BA000280700202DE9F0410228DDE906670446C8
:104BB00029D0062802D040B300251EE01449097808
:104BC0000129F9D13478012C1AD0022CF4D11148E2
:104BD0000136013F0FF076FE05460028ECD000F1CB
:104BE0000808012140460FF08CFE2C752EB127B12C
:104BF0003A46314640460FF09BFE2846BDE8F0811C
:104C000005480024E4E70348E4E70348E2E700BF7F
:104C1000F8050020D80600200007002010B50D4B35
:104C20001B78012B04460CD1037D012B04D0032BF0
:104C30000ED06FF0150010BD042104F108000FF034
:104C400080FE054B214618680FF05FFE0020F2E75A
:104C50000221F2E7F8050020D80B0020014B1B6869
:104C60001B691847D40B0020044B054A1B681060D1
:104C70000BB1DB6818476FF012007047D40B0020AF
:104C8000D80B00202DE9F0411446C21D22F003028A
:104C9000671EBFB2186082B005460E4601FB0700D2
:104CA0001480002104220FF05BFDB7B1023CA4B2D6
:104CB00004FB066304FB06F71D44FF1A4FF6FF785A
:104CC0000422013CE8190DEB0201A4B201950FF09A
:104CD0001CFD4445A5EB0605F2D102B0BDE8F0810C
:104CE00070B5056882B095B1EB1D23F00303042273
:104CF000044629460DEB02001E880FF006FD019BBD
:104D000023B1DA1D22F00302013E168023602846FB
:104D100002B070BD0B6870B50C46054683B1073311
:104D200023F003031E880136B6B20422214628462A
:104D30000FF0EBFCEB1D23F003031E80256070BD1C
:104D40000126F2E702FB0100704700BF401A80B263
:104D5000B0FBF2F0704700BF531E11449BB242B14A
:104D6000DB43CA18013811F8013D00F8013F9142B8
:104D7000F9D17047014402E010F8013B1BB98842A9
:104D8000FAD1002070470120704700BF1060086012
:104D9000704700BF0A6803460068904205BF0022C2
:104DA0000A6000201A60704710B41468206014680C
:104DB000616010BC10607047884203D01AB143682C
:104DC00013607047002070470B68834209D02AB1F6
:104DD000586810601A680A6018467047002BF9D1AD
:104DE000FAE70023F8E700BF2DE9F041DFF834804F
:104DF0000B4E0C2706F130044546221D214628465D
:104E00000C3CFFF7C3FFB442A5F10805F5D1043F00
:104E10003B1DA8F12008A4F13006EBD1BDE8F081DC
:104E2000E40C0020540C002030B403460C469AB128
:104E300001EB41010801144D03EB430100EB81013B
:104E40002944487A0D7AA84204BF013008722146ED
:104E5000184630BC0CF058BD01EB41020A4D12015E
:104E600000EB400302EB83032B449D7ADA7AAA42DB
:104E700001D030BC7047054D01329A7201236B544A
:104E800030BC0CF087BD00BF600C00205C0C002023
:104E900070B51C4606460D4622B363782278D21AB6
:104EA00012F0030205D0012A40D00133DBB2237097
:104EB0000FE03022042112FB05110C2212FB061216
:104EC00001331B496068DBB20A4423702146FFF7B7
:104ED0006BFF184B3046012229465A550CF05AFDFB
:104EE000002070BD0CF038FD0028D6D02946304691
:104EF0000CF01EFD0028D0D005EB450211010C4836
:104F0000637806EB460201EB82020244917AD27A80
:104F10009142C3D12278D21A920702D00233DBB277
:104F20002370D4E902039847002070BD104670BD7D
:104F3000600C00205C0C00204E490B5C002B00F044
:104F400098802DE9F04F4C4B4FF03C0B87B000227E
:104F50000BFB003B0A5400EB40070BF104010392EA
:104F600003EB071701924FF00309884602900023D4
:104F7000D7E9090105AA0593FFF71EFF07F12406EB
:104F80008346002834D0059C25786378ED1A05F017
:104F90000305012D06D1013B6370D4E90203984754
:104FA000059C637894F800C0B86AACEB030303F087
:104FB0000303012B4FF0000231465FFA8CFA0DD04B
:104FC000FFF702FF62782378C4F804B09B1A03F05D
:104FD0000303012B84F801A044D0B86A014605AA56
:104FE000786AFFF7E9FE012D834629D00028CAD14F
:104FF00097F82E3097F82F209A4203D087F82F3059
:105000000123019397F82C3097F82D209A4203D072
:1050100087F82D300123039309F1FF395FFA89F9ED
:10502000B9F1FF0FA7F10C07A1D1DDE9013AB3B146
:10503000039BA3B91A46514650460CF065FC0EE09E
:10504000B9F1000F01D10028D2D0DDF808A0094A3B
:1050500001235146504602F80A300CF09BFC07B081
:10506000BDE8F08F6270214658464246FFF79CFE2D
:10507000B3E770475C0C0020600C0020A1B14B1E10
:10508000DBB210B4411EC418002011F8013F3BB13F
:105090005BB25A1E1340013013F0FF03C0B2F7D1C8
:1050A000A142F2D110BC7047084670472DE9F04389
:1050B0004F4D83B00646032701240421304609F0F2
:1050C000C5FE7378F27896F802C030784CEA022C6C
:1050D00040EA032040EA0C401E234FEADC3C4FF03C
:1050E000000E4FF001090CE00EF101011B2BC9B2BB
:1050F0006AD94FF00109192951D08E469446013BD7
:105100001ED320FA03F202F001029445ECD109F11A
:1051100001085FFA88F8B8F1060F0DD9714604FA54
:1051200003FCBAB320EA0C004FF0000C7145E6D145
:105130000131C9B26246DCE74CD1C146013BE0D245
:1051400080EA050301930DF1040C0DF1080E002215
:105150001CF8013B3BB15BB2591E0B40013213F00E
:10516000FF03D2B2F7D1E645F2D1012A09D983B2C1
:10517000B3EB104F4FEA10421BD1C3B2B3EB106F29
:1051800017D1013F17F0FF0797D16FF00D0003B063
:10519000BDE8F08340EA0C004FF0010CC6E7013394
:1051A00004FA03F312B15B421840C9E7013B18430C
:1051B000C6E7C0F30721130A307000207170B27087
:1051C000F37003B0BDE8F0834FF001080129A6D9C0
:1051D000C14690E71C2B04D91B2B06D99446C14627
:1051E000ACE7BEF1000F99D0F6E77146EEE700BFDD
:1051F000D6BE898E2DE9F04F827F8DB001230492B7
:10520000C377002A5BD1437FFF2B814656D00BF03A
:1052100089FED9F8142099F81C3099F81D60801A7D
:10522000FF2B20F07F4B00F03A81D9F818305B4516
:1052300094BF002301230193FF2ED9F800704FF093
:10524000000866D0CDF8089006EB460607EB06147A
:105250003601A2685A455AD894F802A06378BE5D18
:10526000A3EB0A03DBB2012BABEB020B90444CD156
:10527000A06968B3019B002B00F08D80E38B039342
:10528000A36A3BB11A681AB11A7A002A00F0F480B6
:1052900000221A72039A94F82C10013292B2E2831F
:1052A000002932D0A18B91422FD2002B00F0FA803E
:1052B0001A7A012A29D04FF0010C0EE0C2770DB006
:1052C000BDE8F08FDDE909B8DDF820A00B9E4C4663
:1052D000A36A002B40D04FF0000C00221A72E56840
:1052E0005A600AF1FF33A3707DB1029B626958696D
:1052F000616A2369A8EB0202104420F07F40BCF1F0
:10530000000F39D04FF6FF72A847FF2E9CD1DDF871
:10531000089099F80B3099F80A209A420AD1013284
:10532000D2B2022A1CBF13460493049A89F80B20B8
:1053300008BF002309EB8303D9F82440C3F80C808D
:10534000002289F81F204B46012204210320A44695
:105350000DB0BDE8F04F6047E5680AF1FF33A37078
:10536000002DD2D0029B62695869616A2369A8EB5B
:105370000202104420F07F40E28BA847A26900237C
:105380009A42019AE38318BF0122FF2E0192E37033
:105390007FF45AAFBBE794F92D300593803397D053
:1053A000FF2E95D0E38BA28B0393934228BF9B1AC9
:1053B00005996268CDF820A0591A03FB02230693D1
:1053C000CDE909B8079133460025A1460B96009216
:1053D0002CE0009CAAEB0808002C48D0069C0AFB95
:1053E0000C8844458CBF4FF001084FF0000834BFD3
:1053F0004FF0010A4FF0000AB14292F803B099F859
:1054000003200FD3934543D81EF1800F40D0079A55
:10541000ACEB0E0C944502DDB8F1000F38D0059AC4
:10542000724532D0FB5CFF2B3FF44CAF1BB203EB59
:10543000430307EB03121B01D2F808804544A8423E
:10544000FFF440AF91690029ECD0D18B968BD2F854
:1054500004A092F92DE0B1428C4628BFA1EB060CC6
:10546000BAF1000FB5D1009CD046002CB6D1DDF8C2
:1054700000A04FF00108BFE7A28B03998A423FF6D4
:1054800007AF4FF001021A7204E7BAF1000FC9D05A
:10549000DDE909B8DDF820A00B9E4C46F0E6049B40
:1054A0000193C9E6E5680AF1FF33A370002D3FF4CC
:1054B0002CAF029B60695A69616A2369A8EB0000FE
:1054C000104420F07F401DE7C27F002A40F01F8675
:1054D0002DE9F04F837AC17A8FB0834640690590F9
:1054E00099424FF001008BF81E0000F096800344B3
:1054F000DBB2022B08BF13460BEB83028BF80A309A
:10550000D368059A0293D31823F07F43CBF8143065
:1055100001230D939BF809309BF81D200692DBF8C0
:105520000020DBF80410079304921A46013B0C910B
:10553000DBB2002A00F0158301EBC30600230893B9
:10554000FF2301933746D9467B68079397F803C03A
:10555000BB78BA460799984603EB430203EB8202F5
:10556000581C634501EB8205C3B200F082819AF8B2
:105570000000984208BF00238AF8023011F8222068
:10558000042A40F27481072A00F286806978049C1C
:1055900001EB410004EB00140001A7780A90607849
:1055A000C01B10F0FF0077D0052A65D0012837D145
:1055B00099F81DC0D9F80060BCF1FF0F17D00CEBB3
:1055C0004C00614506EB001000F09080002301E0E4
:1055D000614570D0E64690F800C0D0F80880BCF174
:1055E000FF0F0CEB4C00434406EB0010F0D10026FB
:1055F000052AA66000F02681677099F81C308B425E
:1056000022D0EB6A00202870A8620BB1296B984762
:105610009AF803C09AF802309CE70D92029279E75B
:1056200004214B460122D9F824400846A0470C9A91
:105630008AF8028057460123BA420893A7F108036B
:1056400000F01E811F467FE7FF23072A89F81C30E0
:1056500040F0DD816868D9F81430C21A140200F1F4
:10566000CD8122F07F43029A1344D9F818209A4240
:1056700088BFC9F81830C4E76E68002E96D1AE68AE
:10568000002E93D1EE68002E90D12E69002E8DD180
:105690006E6936F07F4689D1EA6A002101202970BF
:1056A000A862002A3FF456AF296B90479AF803C0CE
:1056B0009AF802304EE70EEB4E07714506EB0717DE
:1056C00016D00178D0F808C03970FF2906D001EB58
:1056D000410106EB01118868604488600CEB030609
:1056E000052AA66009D0A778697885E707460023D0
:1056F000027889F81D202A78E3E7D9F81470039717
:105700000BF010FC029BA0EB070C2CF07F473B44F6
:105710009E42804640F2A2806269F31A6668002EBB
:1057200053D0A88A002850D0013880B29E42E18B25
:10573000A88225D206F1010B0B9211E000F1E8706E
:1057400000F5D43000F5A570DE46099A0139A3EBC7
:105750000E0389B2801A9E42E18360620ED2A88A4B
:10576000884280F0B281D4E90820DFF8D0E20992C3
:10577000B14A86449645E1D8B646E6E70B9AA88A30
:10578000884221D9206A099006F1010E0B9207E0A8
:105790006062B346A88A013189B281425B4411D26A
:1057A000099A606ADFF894B21044A34A834493458F
:1057B000EED8A0F1E870A0F5D430A0F5A570606235
:1057C000F346E7E70B9AE183A083D5E9010EA66AC9
:1057D00003447244A360626136B1316821B1A0EB29
:1057E0000E007060A36862691CF4000F21D13B4475
:1057F00093421BD99B1A0022A3606261E968A369E6
:105800002A690B44934288BF9B1AAA7D98BF002344
:10581000A36102B1E270049B0A9A1946019B8B5462
:1058200063786A78019201336370EAE6D21A002342
:10583000E2E70399A1EB080727F07F479F4213D2C5
:10584000DB1BD5E7D9F8147003970BF06BFB029BB9
:10585000A0EB070C2CF07F4780463B4461690B446A
:105860009A1B6261002359E73A44D21ADFE798464F
:1058700072E60C9A5746BA42A7F108037FF4E2AEEB
:1058800099F81D70069BDB1B18BF012307930D9B26
:10589000CB46002B40F06D8199F80920D9F80030F3
:1058A000D9F804100493531E0991DBB2002A00F0CA
:1058B000108101EBC3080D9B0393D8F8043098F8CE
:1058C00001600593019BFF2B5ED0DDF804A0049BD3
:1058D0000FFA8AF404EB44044FEA041C03EB0414AB
:1058E00013F80C3001930025FF222270DBF80070C2
:1058F0009BF81D3007EB0C009342816818BF0292A1
:1059000011D193E0B1EB0C0106D1BEF81EE0B0F866
:105910001E90F14500F2D68017F802C00293BCF148
:10592000FF0F77D0634603EB430C07EB0C1E4FEAE7
:105930000C12DEF808C08C45E4D9029A8160FF2A77
:1059400003706CD18BF81DA0FF2B06D003EB430333
:1059500007EB0317BB68591AB960A378013363706A
:10596000002DAFD0EB6A039A2A70AA6213B1296B9B
:10597000002098476368002BA4D1D5E90B23C4E924
:105980000823019BFF2BA0D198F80230B3422ED000
:10599000059F98F8000006EB460206EB82020136EE
:1059A00017F82210F6B2B04208BF0026042907EB10
:1059B00082051AD195F801A0049B0AEB4A0C03EB6F
:1059C0000C144FEA0C1C6178A378C91A11F0FF017E
:1059D00036D0039B07F82230EB6A0122AA621046F8
:1059E0000BB1296B984798F80230B342D1D1099A8C
:1059F0004245A8F108036AD098465EE7029A1B1A4E
:105A000023F07F439A428CBFD31A00232DE60BF07C
:105A100089FA20E61A46816080F800C0634612B217
:105A200002EB4202120107F802A08DE707F80C30E2
:105A30008BF81DA091E700BF592B177F5A2B17FF3A
:105A4000AF8ADBF814E0686A4FF6FF794F45D5E975
:105A500003232ED084F82C10A06262602362D5E963
:105A600006236868A2612A6AA783A0EB0E07C4E92F
:105A700003323A02AB680CD427F07F473B448BB12A
:105A8000A360039B6362E3834FF001036161E370F2
:105A90002AE7AEEB000222F07F42934205D99B1A1F
:105AA000002BEDD119460023EAE7D31A194600234B
:105AB000E6E74FF0010784F82C70A0626260236271
:105AC0000F46CCE7029A614638E70B9A58E69BF8F6
:105AD0001D70069BBB4200F02483089B002B00F046
